{
  "contractName": "SmartChefInitializable",
  "abi": [
    {
      "inputs": [],
      "stateMutability": "nonpayable",
      "type": "constructor"
    },
    {
      "anonymous": false,
      "inputs": [
        {
          "indexed": true,
          "internalType": "address",
          "name": "user",
          "type": "address"
        },
        {
          "indexed": false,
          "internalType": "uint256",
          "name": "amount",
          "type": "uint256"
        }
      ],
      "name": "AddRewardTokens",
      "type": "event"
    },
    {
      "anonymous": false,
      "inputs": [
        {
          "indexed": false,
          "internalType": "address",
          "name": "tokenRecovered",
          "type": "address"
        },
        {
          "indexed": false,
          "internalType": "uint256",
          "name": "amount",
          "type": "uint256"
        }
      ],
      "name": "AdminTokenRecovery",
      "type": "event"
    },
    {
      "anonymous": false,
      "inputs": [
        {
          "indexed": true,
          "internalType": "address",
          "name": "user",
          "type": "address"
        },
        {
          "indexed": false,
          "internalType": "uint256",
          "name": "amount",
          "type": "uint256"
        }
      ],
      "name": "Deposit",
      "type": "event"
    },
    {
      "anonymous": false,
      "inputs": [
        {
          "indexed": true,
          "internalType": "address",
          "name": "user",
          "type": "address"
        },
        {
          "indexed": false,
          "internalType": "uint256",
          "name": "amount",
          "type": "uint256"
        }
      ],
      "name": "EmergencyWithdraw",
      "type": "event"
    },
    {
      "anonymous": false,
      "inputs": [
        {
          "indexed": false,
          "internalType": "uint256",
          "name": "freezeStartBlock",
          "type": "uint256"
        },
        {
          "indexed": false,
          "internalType": "uint256",
          "name": "freezeEndBlock",
          "type": "uint256"
        }
      ],
      "name": "NewFreezeBlocks",
      "type": "event"
    },
    {
      "anonymous": false,
      "inputs": [
        {
          "indexed": false,
          "internalType": "uint256",
          "name": "poolLimitPerUser",
          "type": "uint256"
        }
      ],
      "name": "NewPoolLimit",
      "type": "event"
    },
    {
      "anonymous": false,
      "inputs": [
        {
          "indexed": false,
          "internalType": "uint256",
          "name": "rewardPerBlock",
          "type": "uint256"
        }
      ],
      "name": "NewRewardPerBlock",
      "type": "event"
    },
    {
      "anonymous": false,
      "inputs": [
        {
          "indexed": false,
          "internalType": "uint256",
          "name": "startBlock",
          "type": "uint256"
        },
        {
          "indexed": false,
          "internalType": "uint256",
          "name": "endBlock",
          "type": "uint256"
        }
      ],
      "name": "NewStartAndEndBlocks",
      "type": "event"
    },
    {
      "anonymous": false,
      "inputs": [
        {
          "indexed": true,
          "internalType": "address",
          "name": "previousOwner",
          "type": "address"
        },
        {
          "indexed": true,
          "internalType": "address",
          "name": "newOwner",
          "type": "address"
        }
      ],
      "name": "OwnershipTransferred",
      "type": "event"
    },
    {
      "anonymous": false,
      "inputs": [
        {
          "indexed": false,
          "internalType": "uint256",
          "name": "blockNumber",
          "type": "uint256"
        }
      ],
      "name": "RewardsStop",
      "type": "event"
    },
    {
      "anonymous": false,
      "inputs": [
        {
          "indexed": true,
          "internalType": "address",
          "name": "user",
          "type": "address"
        },
        {
          "indexed": false,
          "internalType": "uint256",
          "name": "amount",
          "type": "uint256"
        }
      ],
      "name": "Withdraw",
      "type": "event"
    },
    {
      "inputs": [],
      "name": "PRECISION_FACTOR",
      "outputs": [
        {
          "internalType": "uint256",
          "name": "",
          "type": "uint256"
        }
      ],
      "stateMutability": "view",
      "type": "function"
    },
    {
      "inputs": [],
      "name": "SMART_CHEF_FACTORY",
      "outputs": [
        {
          "internalType": "address",
          "name": "",
          "type": "address"
        }
      ],
      "stateMutability": "view",
      "type": "function"
    },
    {
      "inputs": [],
      "name": "accTokenPerShare",
      "outputs": [
        {
          "internalType": "uint256",
          "name": "",
          "type": "uint256"
        }
      ],
      "stateMutability": "view",
      "type": "function"
    },
    {
      "inputs": [],
      "name": "bonusEndBlock",
      "outputs": [
        {
          "internalType": "uint256",
          "name": "",
          "type": "uint256"
        }
      ],
      "stateMutability": "view",
      "type": "function"
    },
    {
      "inputs": [],
      "name": "freezeEndBlock",
      "outputs": [
        {
          "internalType": "uint256",
          "name": "",
          "type": "uint256"
        }
      ],
      "stateMutability": "view",
      "type": "function"
    },
    {
      "inputs": [],
      "name": "freezeStartBlock",
      "outputs": [
        {
          "internalType": "uint256",
          "name": "",
          "type": "uint256"
        }
      ],
      "stateMutability": "view",
      "type": "function"
    },
    {
      "inputs": [],
      "name": "hasUserLimit",
      "outputs": [
        {
          "internalType": "bool",
          "name": "",
          "type": "bool"
        }
      ],
      "stateMutability": "view",
      "type": "function"
    },
    {
      "inputs": [],
      "name": "isInitialized",
      "outputs": [
        {
          "internalType": "bool",
          "name": "",
          "type": "bool"
        }
      ],
      "stateMutability": "view",
      "type": "function"
    },
    {
      "inputs": [],
      "name": "lastRewardBlock",
      "outputs": [
        {
          "internalType": "uint256",
          "name": "",
          "type": "uint256"
        }
      ],
      "stateMutability": "view",
      "type": "function"
    },
    {
      "inputs": [],
      "name": "owner",
      "outputs": [
        {
          "internalType": "address",
          "name": "",
          "type": "address"
        }
      ],
      "stateMutability": "view",
      "type": "function"
    },
    {
      "inputs": [],
      "name": "poolLimitPerUser",
      "outputs": [
        {
          "internalType": "uint256",
          "name": "",
          "type": "uint256"
        }
      ],
      "stateMutability": "view",
      "type": "function"
    },
    {
      "inputs": [],
      "name": "renounceOwnership",
      "outputs": [],
      "stateMutability": "nonpayable",
      "type": "function"
    },
    {
      "inputs": [],
      "name": "rewardPerBlock",
      "outputs": [
        {
          "internalType": "uint256",
          "name": "",
          "type": "uint256"
        }
      ],
      "stateMutability": "view",
      "type": "function"
    },
    {
      "inputs": [],
      "name": "rewardToken",
      "outputs": [
        {
          "internalType": "contract IBEP20",
          "name": "",
          "type": "address"
        }
      ],
      "stateMutability": "view",
      "type": "function"
    },
    {
      "inputs": [],
      "name": "stakedToken",
      "outputs": [
        {
          "internalType": "contract IBEP20",
          "name": "",
          "type": "address"
        }
      ],
      "stateMutability": "view",
      "type": "function"
    },
    {
      "inputs": [],
      "name": "startBlock",
      "outputs": [
        {
          "internalType": "uint256",
          "name": "",
          "type": "uint256"
        }
      ],
      "stateMutability": "view",
      "type": "function"
    },
    {
      "inputs": [],
      "name": "totalRewardTokens",
      "outputs": [
        {
          "internalType": "uint256",
          "name": "",
          "type": "uint256"
        }
      ],
      "stateMutability": "view",
      "type": "function"
    },
    {
      "inputs": [],
      "name": "totalStakingTokens",
      "outputs": [
        {
          "internalType": "uint256",
          "name": "",
          "type": "uint256"
        }
      ],
      "stateMutability": "view",
      "type": "function"
    },
    {
      "inputs": [
        {
          "internalType": "address",
          "name": "newOwner",
          "type": "address"
        }
      ],
      "name": "transferOwnership",
      "outputs": [],
      "stateMutability": "nonpayable",
      "type": "function"
    },
    {
      "inputs": [
        {
          "internalType": "address",
          "name": "",
          "type": "address"
        }
      ],
      "name": "userInfo",
      "outputs": [
        {
          "internalType": "address",
          "name": "addr",
          "type": "address"
        },
        {
          "internalType": "uint256",
          "name": "amount",
          "type": "uint256"
        },
        {
          "internalType": "uint256",
          "name": "rewardDebt",
          "type": "uint256"
        },
        {
          "internalType": "bool",
          "name": "registered",
          "type": "bool"
        }
      ],
      "stateMutability": "view",
      "type": "function"
    },
    {
      "inputs": [
        {
          "internalType": "uint256",
          "name": "",
          "type": "uint256"
        }
      ],
      "name": "userList",
      "outputs": [
        {
          "internalType": "address",
          "name": "",
          "type": "address"
        }
      ],
      "stateMutability": "view",
      "type": "function"
    },
    {
      "inputs": [
        {
          "internalType": "contract IBEP20",
          "name": "_stakedToken",
          "type": "address"
        },
        {
          "internalType": "contract IBEP20",
          "name": "_rewardToken",
          "type": "address"
        },
        {
          "internalType": "uint256",
          "name": "_rewardPerBlock",
          "type": "uint256"
        },
        {
          "internalType": "uint256",
          "name": "_startBlock",
          "type": "uint256"
        },
        {
          "internalType": "uint256",
          "name": "_bonusEndBlock",
          "type": "uint256"
        },
        {
          "internalType": "uint256",
          "name": "_poolLimitPerUser",
          "type": "uint256"
        },
        {
          "internalType": "address",
          "name": "_admin",
          "type": "address"
        }
      ],
      "name": "initialize",
      "outputs": [],
      "stateMutability": "nonpayable",
      "type": "function"
    },
    {
      "inputs": [
        {
          "internalType": "uint256",
          "name": "_amount",
          "type": "uint256"
        }
      ],
      "name": "deposit",
      "outputs": [],
      "stateMutability": "nonpayable",
      "type": "function"
    },
    {
      "inputs": [
        {
          "internalType": "uint256",
          "name": "_amount",
          "type": "uint256"
        }
      ],
      "name": "withdraw",
      "outputs": [],
      "stateMutability": "nonpayable",
      "type": "function"
    },
    {
      "inputs": [],
      "name": "emergencyWithdraw",
      "outputs": [],
      "stateMutability": "nonpayable",
      "type": "function"
    },
    {
      "inputs": [],
      "name": "getUserListLength",
      "outputs": [
        {
          "internalType": "uint256",
          "name": "",
          "type": "uint256"
        }
      ],
      "stateMutability": "view",
      "type": "function"
    },
    {
      "inputs": [
        {
          "internalType": "uint256",
          "name": "_offset",
          "type": "uint256"
        },
        {
          "internalType": "uint256",
          "name": "_limit",
          "type": "uint256"
        }
      ],
      "name": "getUsersPaging",
      "outputs": [
        {
          "components": [
            {
              "internalType": "address",
              "name": "addr",
              "type": "address"
            },
            {
              "internalType": "uint256",
              "name": "amount",
              "type": "uint256"
            },
            {
              "internalType": "uint256",
              "name": "rewardDebt",
              "type": "uint256"
            },
            {
              "internalType": "bool",
              "name": "registered",
              "type": "bool"
            }
          ],
          "internalType": "struct SmartChefInitializable.UserInfo[]",
          "name": "users",
          "type": "tuple[]"
        },
        {
          "internalType": "uint256",
          "name": "nextOffset",
          "type": "uint256"
        },
        {
          "internalType": "uint256",
          "name": "total",
          "type": "uint256"
        }
      ],
      "stateMutability": "view",
      "type": "function"
    },
    {
      "inputs": [],
      "name": "isFrozen",
      "outputs": [
        {
          "internalType": "bool",
          "name": "",
          "type": "bool"
        }
      ],
      "stateMutability": "view",
      "type": "function"
    },
    {
      "inputs": [
        {
          "internalType": "uint256",
          "name": "_amount",
          "type": "uint256"
        }
      ],
      "name": "emergencyRewardWithdraw",
      "outputs": [],
      "stateMutability": "nonpayable",
      "type": "function"
    },
    {
      "inputs": [
        {
          "internalType": "uint256",
          "name": "_amount",
          "type": "uint256"
        }
      ],
      "name": "addRewardTokens",
      "outputs": [],
      "stateMutability": "nonpayable",
      "type": "function"
    },
    {
      "inputs": [
        {
          "internalType": "address",
          "name": "_tokenAddress",
          "type": "address"
        },
        {
          "internalType": "uint256",
          "name": "_tokenAmount",
          "type": "uint256"
        }
      ],
      "name": "recoverWrongTokens",
      "outputs": [],
      "stateMutability": "nonpayable",
      "type": "function"
    },
    {
      "inputs": [],
      "name": "stopReward",
      "outputs": [],
      "stateMutability": "nonpayable",
      "type": "function"
    },
    {
      "inputs": [],
      "name": "stopFreeze",
      "outputs": [],
      "stateMutability": "nonpayable",
      "type": "function"
    },
    {
      "inputs": [
        {
          "internalType": "bool",
          "name": "_hasUserLimit",
          "type": "bool"
        },
        {
          "internalType": "uint256",
          "name": "_poolLimitPerUser",
          "type": "uint256"
        }
      ],
      "name": "updatePoolLimitPerUser",
      "outputs": [],
      "stateMutability": "nonpayable",
      "type": "function"
    },
    {
      "inputs": [
        {
          "internalType": "uint256",
          "name": "_rewardPerBlock",
          "type": "uint256"
        }
      ],
      "name": "updateRewardPerBlock",
      "outputs": [],
      "stateMutability": "nonpayable",
      "type": "function"
    },
    {
      "inputs": [
        {
          "internalType": "uint256",
          "name": "_startBlock",
          "type": "uint256"
        },
        {
          "internalType": "uint256",
          "name": "_bonusEndBlock",
          "type": "uint256"
        }
      ],
      "name": "updateStartAndEndBlocks",
      "outputs": [],
      "stateMutability": "nonpayable",
      "type": "function"
    },
    {
      "inputs": [
        {
          "internalType": "uint256",
          "name": "_freezeStartBlock",
          "type": "uint256"
        },
        {
          "internalType": "uint256",
          "name": "_freezeEndBlock",
          "type": "uint256"
        }
      ],
      "name": "updateFreezaBlocks",
      "outputs": [],
      "stateMutability": "nonpayable",
      "type": "function"
    },
    {
      "inputs": [
        {
          "internalType": "address",
          "name": "_user",
          "type": "address"
        }
      ],
      "name": "pendingReward",
      "outputs": [
        {
          "internalType": "uint256",
          "name": "",
          "type": "uint256"
        }
      ],
      "stateMutability": "view",
      "type": "function"
    }
  ],
  "bytecode": "0x60806040523480156200001157600080fd5b506000620000246200011060201b60201c565b9050806000806101000a81548173ffffffffffffffffffffffffffffffffffffffff021916908373ffffffffffffffffffffffffffffffffffffffff1602179055508073ffffffffffffffffffffffffffffffffffffffff16600073ffffffffffffffffffffffffffffffffffffffff167f8be0079c531659141344cd1fd0a4f28419497f9722a3daafe3b4186f6b6457e060405160405180910390a3506001808190555033600260006101000a81548173ffffffffffffffffffffffffffffffffffffffff021916908373ffffffffffffffffffffffffffffffffffffffff16021790555062000118565b600033905090565b613e4a80620001286000396000f3fe608060405234801561001057600080fd5b50600436106102325760003560e01c80638820690b11610130578063a9f8d181116100b8578063ccd34cd51161007c578063ccd34cd514610600578063db2e21bc1461061e578063f2fde38b14610628578063f40f0f5214610644578063f7c618c11461067457610232565b8063a9f8d1811461056c578063b6b55f251461058a578063bd617191146105a6578063c7ed5cf3146105c4578063cc7a262e146105e257610232565b806392e8990e116100ff57806392e8990e146104b45780639513997f146104d25780639a6b97ca146104ee5780639f4216e814610520578063a0b409051461055057610232565b80638820690b146104505780638ae39cac1461045a5780638da5cb5b146104785780638f6629151461049657610232565b806333eeb147116101be57806358eb97001161018257806358eb9700146103e657806366fe9f8a14610402578063715018a61461042057806380dc06721461042a57806383a5041c1461043457610232565b806333eeb14714610354578063392e53cd146103725780633f138d4b146103905780634576afb0146103ac57806348cd4cb1146103c857610232565b80631b0875a6116102055780631b0875a6146102c25780631cfd0afc146102e0578063281d92d1146102fe5780632e1a7d4d1461031c5780633279beab1461033857610232565b806301f8a9761461023757806305fe2fc1146102535780631959a002146102715780631aed6553146102a4575b600080fd5b610251600480360381019061024c9190612d3a565b610692565b005b61025b61079f565b6040516102689190613c23565b60405180910390f35b61028b60048036038101906102869190612bd2565b6107ac565b60405161029b94939291906137e8565b60405180910390f35b6102ac610809565b6040516102b99190613c23565b60405180910390f35b6102ca61080f565b6040516102d79190613c23565b60405180910390f35b6102e8610815565b6040516102f59190613c23565b60405180910390f35b61030661081b565b6040516103139190613c23565b60405180910390f35b61033660048036038101906103319190612d3a565b610821565b005b610352600480360381019061034d9190612d3a565b610aca565b005b61035c610bb1565b604051610369919061386b565b60405180910390f35b61037a610bcc565b604051610387919061386b565b60405180910390f35b6103aa60048036038101906103a59190612bfb565b610bdf565b005b6103c660048036038101906103c19190612d63565b610de5565b005b6103d0610f34565b6040516103dd9190613c23565b60405180910390f35b61040060048036038101906103fb9190612d3a565b610f3a565b005b61040a611071565b6040516104179190613c23565b60405180910390f35b610428611077565b005b6104326111b1565b005b61044e60048036038101906104499190612c9c565b611236565b005b610458611517565b005b6104626115a5565b60405161046f9190613c23565b60405180910390f35b6104806115ab565b60405161048d919061376d565b60405180910390f35b61049e6115d4565b6040516104ab9190613c23565b60405180910390f35b6104bc6115da565b6040516104c9919061386b565b60405180910390f35b6104ec60048036038101906104e79190612d63565b6115ed565b005b61050860048036038101906105039190612d63565b611791565b6040516105179392919061382d565b60405180910390f35b61053a60048036038101906105359190612d3a565b611960565b604051610547919061376d565b60405180910390f35b61056a60048036038101906105659190612c60565b61199c565b005b610574611b1d565b6040516105819190613c23565b60405180910390f35b6105a4600480360381019061059f9190612d3a565b611b23565b005b6105ae611eed565b6040516105bb919061376d565b60405180910390f35b6105cc611f13565b6040516105d99190613c23565b60405180910390f35b6105ea611f19565b6040516105f79190613886565b60405180910390f35b610608611f3f565b6040516106159190613c23565b60405180910390f35b610626611f45565b005b610642600480360381019061063d9190612bd2565b612110565b005b61065e60048036038101906106599190612bd2565b6122b9565b60405161066b9190613c23565b60405180910390f35b61067c61241d565b6040516106899190613886565b60405180910390f35b61069a612443565b73ffffffffffffffffffffffffffffffffffffffff166106b86115ab565b73ffffffffffffffffffffffffffffffffffffffff161461070e576040517f08c379a000000000000000000000000000000000000000000000000000000000815260040161070590613a83565b60405180910390fd5b60055443108061071f575060045443115b61075e576040517f08c379a000000000000000000000000000000000000000000000000000000000815260040161075590613983565b60405180910390fd5b806008819055507f0c4d677eef92893ac7ec52faf8140fc6c851ab4736302b4f3a89dfb20696a0df816040516107949190613c23565b60405180910390a150565b6000601080549050905090565b60116020528060005260406000206000915090508060000160009054906101000a900473ffffffffffffffffffffffffffffffffffffffff16908060010154908060020154908060030160009054906101000a900460ff16905084565b60045481565b600d5481565b600c5481565b600e5481565b60026001541415610867576040517f08c379a000000000000000000000000000000000000000000000000000000000815260040161085e90613bc3565b60405180910390fd5b60026001819055506000151561087b610bb1565b1515146108bd576040517f08c379a00000000000000000000000000000000000000000000000000000000081526004016108b490613ae3565b60405180910390fd5b6000601160003373ffffffffffffffffffffffffffffffffffffffff1673ffffffffffffffffffffffffffffffffffffffff16815260200190815260200160002090508181600101541015610947576040517f08c379a000000000000000000000000000000000000000000000000000000000815260040161093e90613b43565b60405180910390fd5b61094f61244b565b6000610994826002015461098660095461097860035487600101546124ed90919063ffffffff16565b61255d90919063ffffffff16565b6125b390919063ffffffff16565b90506000831115610a27576109b68383600101546125b390919063ffffffff16565b8260010181905550610a0b3384600b60009054906101000a900473ffffffffffffffffffffffffffffffffffffffff1673ffffffffffffffffffffffffffffffffffffffff166126039092919063ffffffff16565b610a2083600c546125b390919063ffffffff16565b600c819055505b6000811115610a3b57610a3a3382612689565b5b610a68600954610a5a60035485600101546124ed90919063ffffffff16565b61255d90919063ffffffff16565b82600201819055503373ffffffffffffffffffffffffffffffffffffffff167f884edad9ce6fa2440d8a54cc123490eb96d2768479d49ff9c7366125a942436484604051610ab69190613c23565b60405180910390a250506001808190555050565b610ad2612443565b73ffffffffffffffffffffffffffffffffffffffff16610af06115ab565b73ffffffffffffffffffffffffffffffffffffffff1614610b46576040517f08c379a0000000000000000000000000000000000000000000000000000000008152600401610b3d90613a83565b60405180910390fd5b610b5b81600d546125b390919063ffffffff16565b600d81905550610bae3382600a60009054906101000a900473ffffffffffffffffffffffffffffffffffffffff1673ffffffffffffffffffffffffffffffffffffffff166126039092919063ffffffff16565b50565b6000600e544310158015610bc75750600f544311155b905090565b600260159054906101000a900460ff1681565b610be7612443565b73ffffffffffffffffffffffffffffffffffffffff16610c056115ab565b73ffffffffffffffffffffffffffffffffffffffff1614610c5b576040517f08c379a0000000000000000000000000000000000000000000000000000000008152600401610c5290613a83565b60405180910390fd5b600b60009054906101000a900473ffffffffffffffffffffffffffffffffffffffff1673ffffffffffffffffffffffffffffffffffffffff168273ffffffffffffffffffffffffffffffffffffffff161415610cec576040517f08c379a0000000000000000000000000000000000000000000000000000000008152600401610ce390613b83565b60405180910390fd5b600a60009054906101000a900473ffffffffffffffffffffffffffffffffffffffff1673ffffffffffffffffffffffffffffffffffffffff168273ffffffffffffffffffffffffffffffffffffffff161415610d7d576040517f08c379a0000000000000000000000000000000000000000000000000000000008152600401610d7490613b23565b60405180910390fd5b610da833828473ffffffffffffffffffffffffffffffffffffffff166126039092919063ffffffff16565b7f74545154aac348a3eac92596bd1971957ca94795f4e954ec5f613b55fab781298282604051610dd99291906137bf565b60405180910390a15050565b610ded612443565b73ffffffffffffffffffffffffffffffffffffffff16610e0b6115ab565b73ffffffffffffffffffffffffffffffffffffffff1614610e61576040517f08c379a0000000000000000000000000000000000000000000000000000000008152600401610e5890613a83565b60405180910390fd5b808210610ea3576040517f08c379a0000000000000000000000000000000000000000000000000000000008152600401610e9a906138e3565b60405180910390fd5b814310610ee5576040517f08c379a0000000000000000000000000000000000000000000000000000000008152600401610edc906139c3565b60405180910390fd5b81600e8190555080600f819055507f080714edca65a9efa6808d0878ed31139a92702de78d5e8672498971d8843f4c600e54600f54604051610f28929190613c3e565b60405180910390a15050565b60055481565b610f42612443565b73ffffffffffffffffffffffffffffffffffffffff16610f606115ab565b73ffffffffffffffffffffffffffffffffffffffff1614610fb6576040517f08c379a0000000000000000000000000000000000000000000000000000000008152600401610fad90613a83565b60405180910390fd5b610fcb81600d5461277390919063ffffffff16565b600d81905550611020333083600a60009054906101000a900473ffffffffffffffffffffffffffffffffffffffff1673ffffffffffffffffffffffffffffffffffffffff166127c8909392919063ffffffff16565b3373ffffffffffffffffffffffffffffffffffffffff167f31fc66d3f6b80f4111a065cef1521359d3558c3540b9adbf29c4a5c81f4accc3826040516110669190613c23565b60405180910390a250565b60075481565b61107f612443565b73ffffffffffffffffffffffffffffffffffffffff1661109d6115ab565b73ffffffffffffffffffffffffffffffffffffffff16146110f3576040517f08c379a00000000000000000000000000000000000000000000000000000000081526004016110ea90613a83565b60405180910390fd5b600073ffffffffffffffffffffffffffffffffffffffff1660008054906101000a900473ffffffffffffffffffffffffffffffffffffffff1673ffffffffffffffffffffffffffffffffffffffff167f8be0079c531659141344cd1fd0a4f28419497f9722a3daafe3b4186f6b6457e060405160405180910390a360008060006101000a81548173ffffffffffffffffffffffffffffffffffffffff021916908373ffffffffffffffffffffffffffffffffffffffff160217905550565b6111b9612443565b73ffffffffffffffffffffffffffffffffffffffff166111d76115ab565b73ffffffffffffffffffffffffffffffffffffffff161461122d576040517f08c379a000000000000000000000000000000000000000000000000000000000815260040161122490613a83565b60405180910390fd5b43600481905550565b600260159054906101000a900460ff1615611286576040517f08c379a000000000000000000000000000000000000000000000000000000000815260040161127d90613ba3565b60405180910390fd5b600260009054906101000a900473ffffffffffffffffffffffffffffffffffffffff1673ffffffffffffffffffffffffffffffffffffffff163373ffffffffffffffffffffffffffffffffffffffff1614611316576040517f08c379a000000000000000000000000000000000000000000000000000000000815260040161130d90613be3565b60405180910390fd5b6001600260156101000a81548160ff02191690831515021790555086600b60006101000a81548173ffffffffffffffffffffffffffffffffffffffff021916908373ffffffffffffffffffffffffffffffffffffffff16021790555085600a60006101000a81548173ffffffffffffffffffffffffffffffffffffffff021916908373ffffffffffffffffffffffffffffffffffffffff16021790555084600881905550836005819055508260048190555060008211156113f4576001600260146101000a81548160ff021916908315150217905550816007819055505b6000600a60009054906101000a900473ffffffffffffffffffffffffffffffffffffffff1673ffffffffffffffffffffffffffffffffffffffff1663313ce5676040518163ffffffff1660e01b815260040160206040518083038186803b15801561145e57600080fd5b505afa158015611472573d6000803e3d6000fd5b505050506040513d601f19601f820116820180604052508101906114969190612d9f565b60ff169050601e81106114de576040517f08c379a00000000000000000000000000000000000000000000000000000000081526004016114d590613c03565b60405180910390fd5b6114f281601e6125b390919063ffffffff16565b600a0a60098190555060055460068190555061150d82612110565b5050505050505050565b61151f612443565b73ffffffffffffffffffffffffffffffffffffffff1661153d6115ab565b73ffffffffffffffffffffffffffffffffffffffff1614611593576040517f08c379a000000000000000000000000000000000000000000000000000000000815260040161158a90613a83565b60405180910390fd5b6000600e819055506000600f81905550565b60085481565b60008060009054906101000a900473ffffffffffffffffffffffffffffffffffffffff16905090565b60035481565b600260149054906101000a900460ff1681565b6115f5612443565b73ffffffffffffffffffffffffffffffffffffffff166116136115ab565b73ffffffffffffffffffffffffffffffffffffffff1614611669576040517f08c379a000000000000000000000000000000000000000000000000000000000815260040161166090613a83565b60405180910390fd5b60055443108061167a575060045443115b6116b9576040517f08c379a00000000000000000000000000000000000000000000000000000000081526004016116b090613983565b60405180910390fd5b8082106116fb576040517f08c379a00000000000000000000000000000000000000000000000000000000081526004016116f2906138c3565b60405180910390fd5b81431061173d576040517f08c379a000000000000000000000000000000000000000000000000000000000815260040161173490613a43565b60405180910390fd5b81600581905550806004819055506005546006819055507f7cd0ab87d19036f3dfadadb232c78aa4879dda3f0c994a9d637532410ee2ce068282604051611785929190613c3e565b60405180910390a15050565b60606000806000601080549050905060008514156117ae57600194505b8581038511156117be5785810394505b60608567ffffffffffffffff811180156117d757600080fd5b5060405190808252806020026020018201604052801561181157816020015b6117fe612b14565b8152602001906001900390816117f65790505b50905060005b8681101561194b57601160006010838b018154811061183257fe5b9060005260206000200160009054906101000a900473ffffffffffffffffffffffffffffffffffffffff1673ffffffffffffffffffffffffffffffffffffffff1673ffffffffffffffffffffffffffffffffffffffff1681526020019081526020016000206040518060800160405290816000820160009054906101000a900473ffffffffffffffffffffffffffffffffffffffff1673ffffffffffffffffffffffffffffffffffffffff1673ffffffffffffffffffffffffffffffffffffffff16815260200160018201548152602001600282015481526020016003820160009054906101000a900460ff16151515158152505082828151811061193357fe5b60200260200101819052508080600101915050611817565b50808688018394509450945050509250925092565b6010818154811061196d57fe5b906000526020600020016000915054906101000a900473ffffffffffffffffffffffffffffffffffffffff1681565b6119a4612443565b73ffffffffffffffffffffffffffffffffffffffff166119c26115ab565b73ffffffffffffffffffffffffffffffffffffffff1614611a18576040517f08c379a0000000000000000000000000000000000000000000000000000000008152600401611a0f90613a83565b60405180910390fd5b600260149054906101000a900460ff16611a67576040517f08c379a0000000000000000000000000000000000000000000000000000000008152600401611a5e90613aa3565b60405180910390fd5b8115611abd576007548111611ab1576040517f08c379a0000000000000000000000000000000000000000000000000000000008152600401611aa890613ac3565b60405180910390fd5b80600781905550611ae0565b81600260146101000a81548160ff02191690831515021790555060006007819055505b7f241f67ee5f41b7a5cabf911367329be7215900f602ebfc47f89dce2a6bcd847c600754604051611b119190613c23565b60405180910390a15050565b60065481565b60026001541415611b69576040517f08c379a0000000000000000000000000000000000000000000000000000000008152600401611b6090613bc3565b60405180910390fd5b600260018190555060001515611b7d610bb1565b151514611bbf576040517f08c379a0000000000000000000000000000000000000000000000000000000008152600401611bb690613923565b60405180910390fd5b6000601160003373ffffffffffffffffffffffffffffffffffffffff1673ffffffffffffffffffffffffffffffffffffffff1681526020019081526020016000209050600260149054906101000a900460ff1615611c7357600754611c3182600101548461277390919063ffffffff16565b1115611c72576040517f08c379a0000000000000000000000000000000000000000000000000000000008152600401611c6990613b03565b60405180910390fd5b5b611c7b61244b565b600081600101541115611ce9576000611ccd8260020154611cbf600954611cb160035487600101546124ed90919063ffffffff16565b61255d90919063ffffffff16565b6125b390919063ffffffff16565b90506000811115611ce357611ce23382612689565b5b50611dcc565b600015158160030160009054906101000a900460ff1615151415611dcb576010339080600181540180825580915050600190039060005260206000200160009091909190916101000a81548173ffffffffffffffffffffffffffffffffffffffff021916908373ffffffffffffffffffffffffffffffffffffffff16021790555060018160030160006101000a81548160ff021916908315150217905550338160000160006101000a81548173ffffffffffffffffffffffffffffffffffffffff021916908373ffffffffffffffffffffffffffffffffffffffff1602179055505b5b6000821115611e5f57611dec82826001015461277390919063ffffffff16565b8160010181905550611e43333084600b60009054906101000a900473ffffffffffffffffffffffffffffffffffffffff1673ffffffffffffffffffffffffffffffffffffffff166127c8909392919063ffffffff16565b611e5882600c5461277390919063ffffffff16565b600c819055505b611e8c600954611e7e60035484600101546124ed90919063ffffffff16565b61255d90919063ffffffff16565b81600201819055503373ffffffffffffffffffffffffffffffffffffffff167fe1fffcc4923d04b559f4d29a8bfc6cda04eb5b0d3c460751c2402c5c5cc9109c83604051611eda9190613c23565b60405180910390a2506001808190555050565b600260009054906101000a900473ffffffffffffffffffffffffffffffffffffffff1681565b600f5481565b600b60009054906101000a900473ffffffffffffffffffffffffffffffffffffffff1681565b60095481565b60026001541415611f8b576040517f08c379a0000000000000000000000000000000000000000000000000000000008152600401611f8290613bc3565b60405180910390fd5b600260018190555060001515611f9f610bb1565b151514611fe1576040517f08c379a0000000000000000000000000000000000000000000000000000000008152600401611fd890613903565b60405180910390fd5b6000601160003373ffffffffffffffffffffffffffffffffffffffff1673ffffffffffffffffffffffffffffffffffffffff1681526020019081526020016000209050600081600101549050600082600101819055506000826002018190555060008111156120b3576120973382600b60009054906101000a900473ffffffffffffffffffffffffffffffffffffffff1673ffffffffffffffffffffffffffffffffffffffff166126039092919063ffffffff16565b6120ac81600c546125b390919063ffffffff16565b600c819055505b3373ffffffffffffffffffffffffffffffffffffffff167f5fafa99d0643513820be26656b45130b01e1c03062e1266bf36f88cbd3bd969583600101546040516120fd9190613c23565b60405180910390a2505060018081905550565b612118612443565b73ffffffffffffffffffffffffffffffffffffffff166121366115ab565b73ffffffffffffffffffffffffffffffffffffffff161461218c576040517f08c379a000000000000000000000000000000000000000000000000000000000815260040161218390613a83565b60405180910390fd5b600073ffffffffffffffffffffffffffffffffffffffff168173ffffffffffffffffffffffffffffffffffffffff1614156121fc576040517f08c379a00000000000000000000000000000000000000000000000000000000081526004016121f390613963565b60405180910390fd5b8073ffffffffffffffffffffffffffffffffffffffff1660008054906101000a900473ffffffffffffffffffffffffffffffffffffffff1673ffffffffffffffffffffffffffffffffffffffff167f8be0079c531659141344cd1fd0a4f28419497f9722a3daafe3b4186f6b6457e060405160405180910390a3806000806101000a81548173ffffffffffffffffffffffffffffffffffffffff021916908373ffffffffffffffffffffffffffffffffffffffff16021790555050565b600080601160008473ffffffffffffffffffffffffffffffffffffffff1673ffffffffffffffffffffffffffffffffffffffff16815260200190815260200160002090506000600c54905060065443118015612316575060008114155b156123d057600061232960065443612851565b90506000612342600854836124ed90919063ffffffff16565b9050600061238161237085612362600954866124ed90919063ffffffff16565b61255d90919063ffffffff16565b60035461277390919063ffffffff16565b90506123c485600201546123b66009546123a8858a600101546124ed90919063ffffffff16565b61255d90919063ffffffff16565b6125b390919063ffffffff16565b95505050505050612418565b61241382600201546124056009546123f760035487600101546124ed90919063ffffffff16565b61255d90919063ffffffff16565b6125b390919063ffffffff16565b925050505b919050565b600a60009054906101000a900473ffffffffffffffffffffffffffffffffffffffff1681565b600033905090565b6006544311612459576124eb565b6000600c54905060008114156124765743600681905550506124eb565b600061248460065443612851565b9050600061249d600854836124ed90919063ffffffff16565b90506124da6124c9846124bb600954856124ed90919063ffffffff16565b61255d90919063ffffffff16565b60035461277390919063ffffffff16565b600381905550436006819055505050505b565b6000808314156125005760009050612557565b600082840290508284828161251157fe5b0414612552576040517f08c379a000000000000000000000000000000000000000000000000000000000815260040161254990613a63565b60405180910390fd5b809150505b92915050565b60008082116125a1576040517f08c379a000000000000000000000000000000000000000000000000000000000815260040161259890613a23565b60405180910390fd5b8183816125aa57fe5b04905092915050565b6000828211156125f8576040517f08c379a00000000000000000000000000000000000000000000000000000000081526004016125ef906139e3565b60405180910390fd5b818303905092915050565b6126848363a9059cbb60e01b84846040516024016126229291906137bf565b604051602081830303815290604052907bffffffffffffffffffffffffffffffffffffffffffffffffffffffff19166020820180517bffffffffffffffffffffffffffffffffffffffffffffffffffffffff83818316178352505050506128a6565b505050565b6000600d54905080821115612705576126ad81600d546125b390919063ffffffff16565b600d819055506127008382600a60009054906101000a900473ffffffffffffffffffffffffffffffffffffffff1673ffffffffffffffffffffffffffffffffffffffff166126039092919063ffffffff16565b61276e565b61271a82600d546125b390919063ffffffff16565b600d8190555061276d8383600a60009054906101000a900473ffffffffffffffffffffffffffffffffffffffff1673ffffffffffffffffffffffffffffffffffffffff166126039092919063ffffffff16565b5b505050565b6000808284019050838110156127be576040517f08c379a00000000000000000000000000000000000000000000000000000000081526004016127b5906139a3565b60405180910390fd5b8091505092915050565b61284b846323b872dd60e01b8585856040516024016127e993929190613788565b604051602081830303815290604052907bffffffffffffffffffffffffffffffffffffffffffffffffffffffff19166020820180517bffffffffffffffffffffffffffffffffffffffffffffffffffffffff83818316178352505050506128a6565b50505050565b600060045482116128765761286f83836125b390919063ffffffff16565b90506128a0565b600454831061288857600090506128a0565b61289d836004546125b390919063ffffffff16565b90505b92915050565b6060612908826040518060400160405280602081526020017f5361666542455032303a206c6f772d6c6576656c2063616c6c206661696c65648152508573ffffffffffffffffffffffffffffffffffffffff1661296d9092919063ffffffff16565b905060008151111561296857808060200190518101906129289190612c37565b612967576040517f08c379a000000000000000000000000000000000000000000000000000000000815260040161295e90613943565b60405180910390fd5b5b505050565b606061297c8484600085612985565b90509392505050565b6060824710156129ca576040517f08c379a00000000000000000000000000000000000000000000000000000000081526004016129c190613a03565b60405180910390fd5b6129d385612a9a565b612a12576040517f08c379a0000000000000000000000000000000000000000000000000000000008152600401612a0990613b63565b60405180910390fd5b600060608673ffffffffffffffffffffffffffffffffffffffff168587604051612a3c9190613756565b60006040518083038185875af1925050503d8060008114612a79576040519150601f19603f3d011682016040523d82523d6000602084013e612a7e565b606091505b5091509150612a8e828286612aad565b92505050949350505050565b600080823b905060008111915050919050565b60608315612abd57829050612b0d565b600083511115612ad05782518084602001fd5b816040517f08c379a0000000000000000000000000000000000000000000000000000000008152600401612b0491906138a1565b60405180910390fd5b9392505050565b6040518060800160405280600073ffffffffffffffffffffffffffffffffffffffff16815260200160008152602001600081526020016000151581525090565b600081359050612b6381613da1565b92915050565b600081359050612b7881613db8565b92915050565b600081519050612b8d81613db8565b92915050565b600081359050612ba281613dcf565b92915050565b600081359050612bb781613de6565b92915050565b600081519050612bcc81613dfd565b92915050565b600060208284031215612be457600080fd5b6000612bf284828501612b54565b91505092915050565b60008060408385031215612c0e57600080fd5b6000612c1c85828601612b54565b9250506020612c2d85828601612ba8565b9150509250929050565b600060208284031215612c4957600080fd5b6000612c5784828501612b7e565b91505092915050565b60008060408385031215612c7357600080fd5b6000612c8185828601612b69565b9250506020612c9285828601612ba8565b9150509250929050565b600080600080600080600060e0888a031215612cb757600080fd5b6000612cc58a828b01612b93565b9750506020612cd68a828b01612b93565b9650506040612ce78a828b01612ba8565b9550506060612cf88a828b01612ba8565b9450506080612d098a828b01612ba8565b93505060a0612d1a8a828b01612ba8565b92505060c0612d2b8a828b01612b54565b91505092959891949750929550565b600060208284031215612d4c57600080fd5b6000612d5a84828501612ba8565b91505092915050565b60008060408385031215612d7657600080fd5b6000612d8485828601612ba8565b9250506020612d9585828601612ba8565b9150509250929050565b600060208284031215612db157600080fd5b6000612dbf84828501612bbd565b91505092915050565b6000612dd483836136e3565b60808301905092915050565b612de981613cd2565b82525050565b612df881613cd2565b82525050565b6000612e0982613c77565b612e138185613ca5565b9350612e1e83613c67565b8060005b83811015612e4f578151612e368882612dc8565b9750612e4183613c98565b925050600181019050612e22565b5085935050505092915050565b612e6581613ce4565b82525050565b612e7481613ce4565b82525050565b6000612e8582613c82565b612e8f8185613cb6565b9350612e9f818560208601613d5d565b80840191505092915050565b612eb481613d39565b82525050565b6000612ec582613c8d565b612ecf8185613cc1565b9350612edf818560208601613d5d565b612ee881613d90565b840191505092915050565b6000612f00602f83613cc1565b91507f4e6577207374617274426c6f636b206d757374206265206c6f7765722074686160008301527f6e206e657720656e6420626c6f636b00000000000000000000000000000000006020830152604082019050919050565b6000612f66603583613cc1565b91507f4e657720667265657a65207374617274426c6f636b206d757374206265206c6f60008301527f776572207468616e206e657720656e64426c6f636b00000000000000000000006020830152604082019050919050565b6000612fcc601c83613cc1565b91507f656d657267656e63792077697468647261772069732066726f7a656e000000006000830152602082019050919050565b600061300c601183613cc1565b91507f6465706f7369742069732066726f7a656e0000000000000000000000000000006000830152602082019050919050565b600061304c602a83613cc1565b91507f5361666542455032303a204245503230206f7065726174696f6e20646964206e60008301527f6f742073756363656564000000000000000000000000000000000000000000006020830152604082019050919050565b60006130b2602683613cc1565b91507f4f776e61626c653a206e6577206f776e657220697320746865207a65726f206160008301527f64647265737300000000000000000000000000000000000000000000000000006020830152604082019050919050565b6000613118601083613cc1565b91507f506f6f6c206861732073746172746564000000000000000000000000000000006000830152602082019050919050565b6000613158601b83613cc1565b91507f536166654d6174683a206164646974696f6e206f766572666c6f7700000000006000830152602082019050919050565b6000613198603483613cc1565b91507f667265657a6520737461727420626c6f636b206d75737420626520686967686560008301527f72207468616e2063757272656e7420626c6f636b0000000000000000000000006020830152604082019050919050565b60006131fe601e83613cc1565b91507f536166654d6174683a207375627472616374696f6e206f766572666c6f7700006000830152602082019050919050565b600061323e602683613cc1565b91507f416464726573733a20696e73756666696369656e742062616c616e636520666f60008301527f722063616c6c00000000000000000000000000000000000000000000000000006020830152604082019050919050565b60006132a4601a83613cc1565b91507f536166654d6174683a206469766973696f6e206279207a65726f0000000000006000830152602082019050919050565b60006132e4603083613cc1565b91507f4e6577207374617274426c6f636b206d7573742062652068696768657220746860008301527f616e2063757272656e7420626c6f636b000000000000000000000000000000006020830152604082019050919050565b600061334a602183613cc1565b91507f536166654d6174683a206d756c7469706c69636174696f6e206f766572666c6f60008301527f77000000000000000000000000000000000000000000000000000000000000006020830152604082019050919050565b60006133b0602083613cc1565b91507f4f776e61626c653a2063616c6c6572206973206e6f7420746865206f776e65726000830152602082019050919050565b60006133f0600b83613cc1565b91507f4d757374206265207365740000000000000000000000000000000000000000006000830152602082019050919050565b6000613430601883613cc1565b91507f4e6577206c696d6974206d7573742062652068696768657200000000000000006000830152602082019050919050565b6000613470601283613cc1565b91507f77697468647261772069732066726f7a656e00000000000000000000000000006000830152602082019050919050565b60006134b0601783613cc1565b91507f5573657220616d6f756e742061626f7665206c696d69740000000000000000006000830152602082019050919050565b60006134f0601683613cc1565b91507f43616e6e6f742062652072657761726420746f6b656e000000000000000000006000830152602082019050919050565b6000613530601b83613cc1565b91507f416d6f756e7420746f20776974686472617720746f6f206869676800000000006000830152602082019050919050565b6000613570601d83613cc1565b91507f416464726573733a2063616c6c20746f206e6f6e2d636f6e74726163740000006000830152602082019050919050565b60006135b0601683613cc1565b91507f43616e6e6f74206265207374616b656420746f6b656e000000000000000000006000830152602082019050919050565b60006135f0601383613cc1565b91507f416c726561647920696e697469616c697a6564000000000000000000000000006000830152602082019050919050565b6000613630601f83613cc1565b91507f5265656e7472616e637947756172643a207265656e7472616e742063616c6c006000830152602082019050919050565b6000613670600b83613cc1565b91507f4e6f7420666163746f72790000000000000000000000000000000000000000006000830152602082019050919050565b60006136b0601683613cc1565b91507f4d75737420626520696e666572696f7220746f203330000000000000000000006000830152602082019050919050565b6080820160008201516136f96000850182612de0565b50602082015161370c6020850182613738565b50604082015161371f6040850182613738565b5060608201516137326060850182612e5c565b50505050565b61374181613d22565b82525050565b61375081613d22565b82525050565b60006137628284612e7a565b915081905092915050565b60006020820190506137826000830184612def565b92915050565b600060608201905061379d6000830186612def565b6137aa6020830185612def565b6137b76040830184613747565b949350505050565b60006040820190506137d46000830185612def565b6137e16020830184613747565b9392505050565b60006080820190506137fd6000830187612def565b61380a6020830186613747565b6138176040830185613747565b6138246060830184612e6b565b95945050505050565b600060608201905081810360008301526138478186612dfe565b90506138566020830185613747565b6138636040830184613747565b949350505050565b60006020820190506138806000830184612e6b565b92915050565b600060208201905061389b6000830184612eab565b92915050565b600060208201905081810360008301526138bb8184612eba565b905092915050565b600060208201905081810360008301526138dc81612ef3565b9050919050565b600060208201905081810360008301526138fc81612f59565b9050919050565b6000602082019050818103600083015261391c81612fbf565b9050919050565b6000602082019050818103600083015261393c81612fff565b9050919050565b6000602082019050818103600083015261395c8161303f565b9050919050565b6000602082019050818103600083015261397c816130a5565b9050919050565b6000602082019050818103600083015261399c8161310b565b9050919050565b600060208201905081810360008301526139bc8161314b565b9050919050565b600060208201905081810360008301526139dc8161318b565b9050919050565b600060208201905081810360008301526139fc816131f1565b9050919050565b60006020820190508181036000830152613a1c81613231565b9050919050565b60006020820190508181036000830152613a3c81613297565b9050919050565b60006020820190508181036000830152613a5c816132d7565b9050919050565b60006020820190508181036000830152613a7c8161333d565b9050919050565b60006020820190508181036000830152613a9c816133a3565b9050919050565b60006020820190508181036000830152613abc816133e3565b9050919050565b60006020820190508181036000830152613adc81613423565b9050919050565b60006020820190508181036000830152613afc81613463565b9050919050565b60006020820190508181036000830152613b1c816134a3565b9050919050565b60006020820190508181036000830152613b3c816134e3565b9050919050565b60006020820190508181036000830152613b5c81613523565b9050919050565b60006020820190508181036000830152613b7c81613563565b9050919050565b60006020820190508181036000830152613b9c816135a3565b9050919050565b60006020820190508181036000830152613bbc816135e3565b9050919050565b60006020820190508181036000830152613bdc81613623565b9050919050565b60006020820190508181036000830152613bfc81613663565b9050919050565b60006020820190508181036000830152613c1c816136a3565b9050919050565b6000602082019050613c386000830184613747565b92915050565b6000604082019050613c536000830185613747565b613c606020830184613747565b9392505050565b6000819050602082019050919050565b600081519050919050565b600081519050919050565b600081519050919050565b6000602082019050919050565b600082825260208201905092915050565b600081905092915050565b600082825260208201905092915050565b6000613cdd82613d02565b9050919050565b60008115159050919050565b6000613cfb82613cd2565b9050919050565b600073ffffffffffffffffffffffffffffffffffffffff82169050919050565b6000819050919050565b600060ff82169050919050565b6000613d4482613d4b565b9050919050565b6000613d5682613d02565b9050919050565b60005b83811015613d7b578082015181840152602081019050613d60565b83811115613d8a576000848401525b50505050565b6000601f19601f8301169050919050565b613daa81613cd2565b8114613db557600080fd5b50565b613dc181613ce4565b8114613dcc57600080fd5b50565b613dd881613cf0565b8114613de357600080fd5b50565b613def81613d22565b8114613dfa57600080fd5b50565b613e0681613d2c565b8114613e1157600080fd5b5056fea264697066735822122059d9a0f7c2b8d2965c35b3d407a0e8d4e6cd9b15cc268e738a8c376a03866eb164736f6c634300060c0033",
  "immutableReferences": {},
  "source": "/**\n *Submitted for verification at BscScan.com on 2021-05-20\n*/\n\n// SPDX-License-Identifier: MIT\n\npragma solidity >=0.6.0 <0.8.0;\npragma experimental ABIEncoderV2;\n\n/*\n * @dev Provides information about the current execution context, including the\n * sender of the transaction and its data. While these are generally available\n * via msg.sender and msg.data, they should not be accessed in such a direct\n * manner, since when dealing with GSN meta-transactions the account sending and\n * paying for execution may not be the actual sender (as far as an application\n * is concerned).\n *\n * This contract is only required for intermediate, library-like contracts.\n */\nabstract contract Context {\n    function _msgSender() internal view virtual returns (address payable) {\n        return msg.sender;\n    }\n\n    function _msgData() internal view virtual returns (bytes memory) {\n        this; // silence state mutability warning without generating bytecode - see https://github.com/ethereum/solidity/issues/2691\n        return msg.data;\n    }\n}\n\n// File: @openzeppelin/contracts/access/Ownable.sol\n\npragma solidity >=0.6.0 <0.8.0;\n\n/**\n * @dev Contract module which provides a basic access control mechanism, where\n * there is an account (an owner) that can be granted exclusive access to\n * specific functions.\n *\n * By default, the owner account will be the one that deploys the contract. This\n * can later be changed with {transferOwnership}.\n *\n * This module is used through inheritance. It will make available the modifier\n * `onlyOwner`, which can be applied to your functions to restrict their use to\n * the owner.\n */\nabstract contract Ownable is Context {\n    address private _owner;\n\n    event OwnershipTransferred(address indexed previousOwner, address indexed newOwner);\n\n    /**\n     * @dev Initializes the contract setting the deployer as the initial owner.\n     */\n    constructor() internal {\n        address msgSender = _msgSender();\n        _owner = msgSender;\n        emit OwnershipTransferred(address(0), msgSender);\n    }\n\n    /**\n     * @dev Returns the address of the current owner.\n     */\n    function owner() public view virtual returns (address) {\n        return _owner;\n    }\n\n    /**\n     * @dev Throws if called by any account other than the owner.\n     */\n    modifier onlyOwner() {\n        require(owner() == _msgSender(), \"Ownable: caller is not the owner\");\n        _;\n    }\n\n    /**\n     * @dev Leaves the contract without owner. It will not be possible to call\n     * `onlyOwner` functions anymore. Can only be called by the current owner.\n     *\n     * NOTE: Renouncing ownership will leave the contract without an owner,\n     * thereby removing any functionality that is only available to the owner.\n     */\n    function renounceOwnership() public virtual onlyOwner {\n        emit OwnershipTransferred(_owner, address(0));\n        _owner = address(0);\n    }\n\n    /**\n     * @dev Transfers ownership of the contract to a new account (`newOwner`).\n     * Can only be called by the current owner.\n     */\n    function transferOwnership(address newOwner) public virtual onlyOwner {\n        require(newOwner != address(0), \"Ownable: new owner is the zero address\");\n        emit OwnershipTransferred(_owner, newOwner);\n        _owner = newOwner;\n    }\n}\n\n// File: @openzeppelin/contracts/math/SafeMath.sol\n\npragma solidity >=0.6.0 <0.8.0;\n\n/**\n * @dev Wrappers over Solidity's arithmetic operations with added overflow\n * checks.\n *\n * Arithmetic operations in Solidity wrap on overflow. This can easily result\n * in bugs, because programmers usually assume that an overflow raises an\n * error, which is the standard behavior in high level programming languages.\n * `SafeMath` restores this intuition by reverting the transaction when an\n * operation overflows.\n *\n * Using this library instead of the unchecked operations eliminates an entire\n * class of bugs, so it's recommended to use it always.\n */\nlibrary SafeMath {\n    /**\n     * @dev Returns the addition of two unsigned integers, with an overflow flag.\n     *\n     * _Available since v3.4._\n     */\n    function tryAdd(uint256 a, uint256 b) internal pure returns (bool, uint256) {\n        uint256 c = a + b;\n        if (c < a) return (false, 0);\n        return (true, c);\n    }\n\n    /**\n     * @dev Returns the substraction of two unsigned integers, with an overflow flag.\n     *\n     * _Available since v3.4._\n     */\n    function trySub(uint256 a, uint256 b) internal pure returns (bool, uint256) {\n        if (b > a) return (false, 0);\n        return (true, a - b);\n    }\n\n    /**\n     * @dev Returns the multiplication of two unsigned integers, with an overflow flag.\n     *\n     * _Available since v3.4._\n     */\n    function tryMul(uint256 a, uint256 b) internal pure returns (bool, uint256) {\n        // Gas optimization: this is cheaper than requiring 'a' not being zero, but the\n        // benefit is lost if 'b' is also tested.\n        // See: https://github.com/OpenZeppelin/openzeppelin-contracts/pull/522\n        if (a == 0) return (true, 0);\n        uint256 c = a * b;\n        if (c / a != b) return (false, 0);\n        return (true, c);\n    }\n\n    /**\n     * @dev Returns the division of two unsigned integers, with a division by zero flag.\n     *\n     * _Available since v3.4._\n     */\n    function tryDiv(uint256 a, uint256 b) internal pure returns (bool, uint256) {\n        if (b == 0) return (false, 0);\n        return (true, a / b);\n    }\n\n    /**\n     * @dev Returns the remainder of dividing two unsigned integers, with a division by zero flag.\n     *\n     * _Available since v3.4._\n     */\n    function tryMod(uint256 a, uint256 b) internal pure returns (bool, uint256) {\n        if (b == 0) return (false, 0);\n        return (true, a % b);\n    }\n\n    /**\n     * @dev Returns the addition of two unsigned integers, reverting on\n     * overflow.\n     *\n     * Counterpart to Solidity's `+` operator.\n     *\n     * Requirements:\n     *\n     * - Addition cannot overflow.\n     */\n    function add(uint256 a, uint256 b) internal pure returns (uint256) {\n        uint256 c = a + b;\n        require(c >= a, \"SafeMath: addition overflow\");\n        return c;\n    }\n\n    /**\n     * @dev Returns the subtraction of two unsigned integers, reverting on\n     * overflow (when the result is negative).\n     *\n     * Counterpart to Solidity's `-` operator.\n     *\n     * Requirements:\n     *\n     * - Subtraction cannot overflow.\n     */\n    function sub(uint256 a, uint256 b) internal pure returns (uint256) {\n        require(b <= a, \"SafeMath: subtraction overflow\");\n        return a - b;\n    }\n\n    /**\n     * @dev Returns the multiplication of two unsigned integers, reverting on\n     * overflow.\n     *\n     * Counterpart to Solidity's `*` operator.\n     *\n     * Requirements:\n     *\n     * - Multiplication cannot overflow.\n     */\n    function mul(uint256 a, uint256 b) internal pure returns (uint256) {\n        if (a == 0) return 0;\n        uint256 c = a * b;\n        require(c / a == b, \"SafeMath: multiplication overflow\");\n        return c;\n    }\n\n    /**\n     * @dev Returns the integer division of two unsigned integers, reverting on\n     * division by zero. The result is rounded towards zero.\n     *\n     * Counterpart to Solidity's `/` operator. Note: this function uses a\n     * `revert` opcode (which leaves remaining gas untouched) while Solidity\n     * uses an invalid opcode to revert (consuming all remaining gas).\n     *\n     * Requirements:\n     *\n     * - The divisor cannot be zero.\n     */\n    function div(uint256 a, uint256 b) internal pure returns (uint256) {\n        require(b > 0, \"SafeMath: division by zero\");\n        return a / b;\n    }\n\n    /**\n     * @dev Returns the remainder of dividing two unsigned integers. (unsigned integer modulo),\n     * reverting when dividing by zero.\n     *\n     * Counterpart to Solidity's `%` operator. This function uses a `revert`\n     * opcode (which leaves remaining gas untouched) while Solidity uses an\n     * invalid opcode to revert (consuming all remaining gas).\n     *\n     * Requirements:\n     *\n     * - The divisor cannot be zero.\n     */\n    function mod(uint256 a, uint256 b) internal pure returns (uint256) {\n        require(b > 0, \"SafeMath: modulo by zero\");\n        return a % b;\n    }\n\n    /**\n     * @dev Returns the subtraction of two unsigned integers, reverting with custom message on\n     * overflow (when the result is negative).\n     *\n     * CAUTION: This function is deprecated because it requires allocating memory for the error\n     * message unnecessarily. For custom revert reasons use {trySub}.\n     *\n     * Counterpart to Solidity's `-` operator.\n     *\n     * Requirements:\n     *\n     * - Subtraction cannot overflow.\n     */\n    function sub(\n        uint256 a,\n        uint256 b,\n        string memory errorMessage\n    ) internal pure returns (uint256) {\n        require(b <= a, errorMessage);\n        return a - b;\n    }\n\n    /**\n     * @dev Returns the integer division of two unsigned integers, reverting with custom message on\n     * division by zero. The result is rounded towards zero.\n     *\n     * CAUTION: This function is deprecated because it requires allocating memory for the error\n     * message unnecessarily. For custom revert reasons use {tryDiv}.\n     *\n     * Counterpart to Solidity's `/` operator. Note: this function uses a\n     * `revert` opcode (which leaves remaining gas untouched) while Solidity\n     * uses an invalid opcode to revert (consuming all remaining gas).\n     *\n     * Requirements:\n     *\n     * - The divisor cannot be zero.\n     */\n    function div(\n        uint256 a,\n        uint256 b,\n        string memory errorMessage\n    ) internal pure returns (uint256) {\n        require(b > 0, errorMessage);\n        return a / b;\n    }\n\n    /**\n     * @dev Returns the remainder of dividing two unsigned integers. (unsigned integer modulo),\n     * reverting with custom message when dividing by zero.\n     *\n     * CAUTION: This function is deprecated because it requires allocating memory for the error\n     * message unnecessarily. For custom revert reasons use {tryMod}.\n     *\n     * Counterpart to Solidity's `%` operator. This function uses a `revert`\n     * opcode (which leaves remaining gas untouched) while Solidity uses an\n     * invalid opcode to revert (consuming all remaining gas).\n     *\n     * Requirements:\n     *\n     * - The divisor cannot be zero.\n     */\n    function mod(\n        uint256 a,\n        uint256 b,\n        string memory errorMessage\n    ) internal pure returns (uint256) {\n        require(b > 0, errorMessage);\n        return a % b;\n    }\n}\n\n// File: @openzeppelin/contracts/utils/ReentrancyGuard.sol\n\npragma solidity >=0.6.0 <0.8.0;\n\n/**\n * @dev Contract module that helps prevent reentrant calls to a function.\n *\n * Inheriting from `ReentrancyGuard` will make the {nonReentrant} modifier\n * available, which can be applied to functions to make sure there are no nested\n * (reentrant) calls to them.\n *\n * Note that because there is a single `nonReentrant` guard, functions marked as\n * `nonReentrant` may not call one another. This can be worked around by making\n * those functions `private`, and then adding `external` `nonReentrant` entry\n * points to them.\n *\n * TIP: If you would like to learn more about reentrancy and alternative ways\n * to protect against it, check out our blog post\n * https://blog.openzeppelin.com/reentrancy-after-istanbul/[Reentrancy After Istanbul].\n */\nabstract contract ReentrancyGuard {\n    // Booleans are more expensive than uint256 or any type that takes up a full\n    // word because each write operation emits an extra SLOAD to first read the\n    // slot's contents, replace the bits taken up by the boolean, and then write\n    // back. This is the compiler's defense against contract upgrades and\n    // pointer aliasing, and it cannot be disabled.\n\n    // The values being non-zero value makes deployment a bit more expensive,\n    // but in exchange the refund on every call to nonReentrant will be lower in\n    // amount. Since refunds are capped to a percentage of the total\n    // transaction's gas, it is best to keep them low in cases like this one, to\n    // increase the likelihood of the full refund coming into effect.\n    uint256 private constant _NOT_ENTERED = 1;\n    uint256 private constant _ENTERED = 2;\n\n    uint256 private _status;\n\n    constructor() internal {\n        _status = _NOT_ENTERED;\n    }\n\n    /**\n     * @dev Prevents a contract from calling itself, directly or indirectly.\n     * Calling a `nonReentrant` function from another `nonReentrant`\n     * function is not supported. It is possible to prevent this from happening\n     * by making the `nonReentrant` function external, and make it call a\n     * `private` function that does the actual work.\n     */\n    modifier nonReentrant() {\n        // On the first call to nonReentrant, _notEntered will be true\n        require(_status != _ENTERED, \"ReentrancyGuard: reentrant call\");\n\n        // Any calls to nonReentrant after this point will fail\n        _status = _ENTERED;\n\n        _;\n\n        // By storing the original value once again, a refund is triggered (see\n        // https://eips.ethereum.org/EIPS/eip-2200)\n        _status = _NOT_ENTERED;\n    }\n}\n\n// File: bsc-library/contracts/IBEP20.sol\n\npragma solidity >=0.4.0;\n\ninterface IBEP20 {\n    /**\n     * @dev Returns the amount of tokens in existence.\n     */\n    function totalSupply() external view returns (uint256);\n\n    /**\n     * @dev Returns the token decimals.\n     */\n    function decimals() external view returns (uint8);\n\n    /**\n     * @dev Returns the token symbol.\n     */\n    function symbol() external view returns (string memory);\n\n    /**\n     * @dev Returns the token name.\n     */\n    function name() external view returns (string memory);\n\n    /**\n     * @dev Returns the bep token owner.\n     */\n    function getOwner() external view returns (address);\n\n    /**\n     * @dev Returns the amount of tokens owned by `account`.\n     */\n    function balanceOf(address account) external view returns (uint256);\n\n    /**\n     * @dev Moves `amount` tokens from the caller's account to `recipient`.\n     *\n     * Returns a boolean value indicating whether the operation succeeded.\n     *\n     * Emits a {Transfer} event.\n     */\n    function transfer(address recipient, uint256 amount) external returns (bool);\n\n    /**\n     * @dev Returns the remaining number of tokens that `spender` will be\n     * allowed to spend on behalf of `owner` through {transferFrom}. This is\n     * zero by default.\n     *\n     * This value changes when {approve} or {transferFrom} are called.\n     */\n    function allowance(address _owner, address spender) external view returns (uint256);\n\n    /**\n     * @dev Sets `amount` as the allowance of `spender` over the caller's tokens.\n     *\n     * Returns a boolean value indicating whether the operation succeeded.\n     *\n     * IMPORTANT: Beware that changing an allowance with this method brings the risk\n     * that someone may use both the old and the new allowance by unfortunate\n     * transaction ordering. One possible solution to mitigate this race\n     * condition is to first reduce the spender's allowance to 0 and set the\n     * desired value afterwards:\n     * https://github.com/ethereum/EIPs/issues/20#issuecomment-263524729\n     *\n     * Emits an {Approval} event.\n     */\n    function approve(address spender, uint256 amount) external returns (bool);\n\n    /**\n     * @dev Moves `amount` tokens from `sender` to `recipient` using the\n     * allowance mechanism. `amount` is then deducted from the caller's\n     * allowance.\n     *\n     * Returns a boolean value indicating whether the operation succeeded.\n     *\n     * Emits a {Transfer} event.\n     */\n    function transferFrom(\n        address sender,\n        address recipient,\n        uint256 amount\n    ) external returns (bool);\n\n    /**\n     * @dev Emitted when `value` tokens are moved from one account (`from`) to\n     * another (`to`).\n     *\n     * Note that `value` may be zero.\n     */\n    event Transfer(address indexed from, address indexed to, uint256 value);\n\n    /**\n     * @dev Emitted when the allowance of a `spender` for an `owner` is set by\n     * a call to {approve}. `value` is the new allowance.\n     */\n    event Approval(address indexed owner, address indexed spender, uint256 value);\n}\n\n// File: @openzeppelin/contracts/utils/Address.sol\n\npragma solidity >=0.6.2 <0.8.0;\n\n/**\n * @dev Collection of functions related to the address type\n */\nlibrary Address {\n    /**\n     * @dev Returns true if `account` is a contract.\n     *\n     * [IMPORTANT]\n     * ====\n     * It is unsafe to assume that an address for which this function returns\n     * false is an externally-owned account (EOA) and not a contract.\n     *\n     * Among others, `isContract` will return false for the following\n     * types of addresses:\n     *\n     *  - an externally-owned account\n     *  - a contract in construction\n     *  - an address where a contract will be created\n     *  - an address where a contract lived, but was destroyed\n     * ====\n     */\n    function isContract(address account) internal view returns (bool) {\n        // This method relies on extcodesize, which returns 0 for contracts in\n        // construction, since the code is only stored at the end of the\n        // constructor execution.\n\n        uint256 size;\n        // solhint-disable-next-line no-inline-assembly\n        assembly {\n            size := extcodesize(account)\n        }\n        return size > 0;\n    }\n\n    /**\n     * @dev Replacement for Solidity's `transfer`: sends `amount` wei to\n     * `recipient`, forwarding all available gas and reverting on errors.\n     *\n     * https://eips.ethereum.org/EIPS/eip-1884[EIP1884] increases the gas cost\n     * of certain opcodes, possibly making contracts go over the 2300 gas limit\n     * imposed by `transfer`, making them unable to receive funds via\n     * `transfer`. {sendValue} removes this limitation.\n     *\n     * https://diligence.consensys.net/posts/2019/09/stop-using-soliditys-transfer-now/[Learn more].\n     *\n     * IMPORTANT: because control is transferred to `recipient`, care must be\n     * taken to not create reentrancy vulnerabilities. Consider using\n     * {ReentrancyGuard} or the\n     * https://solidity.readthedocs.io/en/v0.5.11/security-considerations.html#use-the-checks-effects-interactions-pattern[checks-effects-interactions pattern].\n     */\n    function sendValue(address payable recipient, uint256 amount) internal {\n        require(address(this).balance >= amount, \"Address: insufficient balance\");\n\n        // solhint-disable-next-line avoid-low-level-calls, avoid-call-value\n        (bool success, ) = recipient.call{value: amount}(\"\");\n        require(success, \"Address: unable to send value, recipient may have reverted\");\n    }\n\n    /**\n     * @dev Performs a Solidity function call using a low level `call`. A\n     * plain`call` is an unsafe replacement for a function call: use this\n     * function instead.\n     *\n     * If `target` reverts with a revert reason, it is bubbled up by this\n     * function (like regular Solidity function calls).\n     *\n     * Returns the raw returned data. To convert to the expected return value,\n     * use https://solidity.readthedocs.io/en/latest/units-and-global-variables.html?highlight=abi.decode#abi-encoding-and-decoding-functions[`abi.decode`].\n     *\n     * Requirements:\n     *\n     * - `target` must be a contract.\n     * - calling `target` with `data` must not revert.\n     *\n     * _Available since v3.1._\n     */\n    function functionCall(address target, bytes memory data) internal returns (bytes memory) {\n        return functionCall(target, data, \"Address: low-level call failed\");\n    }\n\n    /**\n     * @dev Same as {xref-Address-functionCall-address-bytes-}[`functionCall`], but with\n     * `errorMessage` as a fallback revert reason when `target` reverts.\n     *\n     * _Available since v3.1._\n     */\n    function functionCall(\n        address target,\n        bytes memory data,\n        string memory errorMessage\n    ) internal returns (bytes memory) {\n        return functionCallWithValue(target, data, 0, errorMessage);\n    }\n\n    /**\n     * @dev Same as {xref-Address-functionCall-address-bytes-}[`functionCall`],\n     * but also transferring `value` wei to `target`.\n     *\n     * Requirements:\n     *\n     * - the calling contract must have an ETH balance of at least `value`.\n     * - the called Solidity function must be `payable`.\n     *\n     * _Available since v3.1._\n     */\n    function functionCallWithValue(\n        address target,\n        bytes memory data,\n        uint256 value\n    ) internal returns (bytes memory) {\n        return functionCallWithValue(target, data, value, \"Address: low-level call with value failed\");\n    }\n\n    /**\n     * @dev Same as {xref-Address-functionCallWithValue-address-bytes-uint256-}[`functionCallWithValue`], but\n     * with `errorMessage` as a fallback revert reason when `target` reverts.\n     *\n     * _Available since v3.1._\n     */\n    function functionCallWithValue(\n        address target,\n        bytes memory data,\n        uint256 value,\n        string memory errorMessage\n    ) internal returns (bytes memory) {\n        require(address(this).balance >= value, \"Address: insufficient balance for call\");\n        require(isContract(target), \"Address: call to non-contract\");\n\n        // solhint-disable-next-line avoid-low-level-calls\n        (bool success, bytes memory returndata) = target.call{value: value}(data);\n        return _verifyCallResult(success, returndata, errorMessage);\n    }\n\n    /**\n     * @dev Same as {xref-Address-functionCall-address-bytes-}[`functionCall`],\n     * but performing a static call.\n     *\n     * _Available since v3.3._\n     */\n    function functionStaticCall(address target, bytes memory data) internal view returns (bytes memory) {\n        return functionStaticCall(target, data, \"Address: low-level static call failed\");\n    }\n\n    /**\n     * @dev Same as {xref-Address-functionCall-address-bytes-string-}[`functionCall`],\n     * but performing a static call.\n     *\n     * _Available since v3.3._\n     */\n    function functionStaticCall(\n        address target,\n        bytes memory data,\n        string memory errorMessage\n    ) internal view returns (bytes memory) {\n        require(isContract(target), \"Address: static call to non-contract\");\n\n        // solhint-disable-next-line avoid-low-level-calls\n        (bool success, bytes memory returndata) = target.staticcall(data);\n        return _verifyCallResult(success, returndata, errorMessage);\n    }\n\n    /**\n     * @dev Same as {xref-Address-functionCall-address-bytes-}[`functionCall`],\n     * but performing a delegate call.\n     *\n     * _Available since v3.4._\n     */\n    function functionDelegateCall(address target, bytes memory data) internal returns (bytes memory) {\n        return functionDelegateCall(target, data, \"Address: low-level delegate call failed\");\n    }\n\n    /**\n     * @dev Same as {xref-Address-functionCall-address-bytes-string-}[`functionCall`],\n     * but performing a delegate call.\n     *\n     * _Available since v3.4._\n     */\n    function functionDelegateCall(\n        address target,\n        bytes memory data,\n        string memory errorMessage\n    ) internal returns (bytes memory) {\n        require(isContract(target), \"Address: delegate call to non-contract\");\n\n        // solhint-disable-next-line avoid-low-level-calls\n        (bool success, bytes memory returndata) = target.delegatecall(data);\n        return _verifyCallResult(success, returndata, errorMessage);\n    }\n\n    function _verifyCallResult(\n        bool success,\n        bytes memory returndata,\n        string memory errorMessage\n    ) private pure returns (bytes memory) {\n        if (success) {\n            return returndata;\n        } else {\n            // Look for revert reason and bubble it up if present\n            if (returndata.length > 0) {\n                // The easiest way to bubble the revert reason is using memory via assembly\n\n                // solhint-disable-next-line no-inline-assembly\n                assembly {\n                    let returndata_size := mload(returndata)\n                    revert(add(32, returndata), returndata_size)\n                }\n            } else {\n                revert(errorMessage);\n            }\n        }\n    }\n}\n\n// File: bsc-library/contracts/SafeBEP20.sol\n\npragma solidity ^0.6.0;\n\n/**\n * @title SafeBEP20\n * @dev Wrappers around BEP20 operations that throw on failure (when the token\n * contract returns false). Tokens that return no value (and instead revert or\n * throw on failure) are also supported, non-reverting calls are assumed to be\n * successful.\n * To use this library you can add a `using SafeBEP20 for IBEP20;` statement to your contract,\n * which allows you to call the safe operations as `token.safeTransfer(...)`, etc.\n */\nlibrary SafeBEP20 {\n    using SafeMath for uint256;\n    using Address for address;\n\n    function safeTransfer(\n        IBEP20 token,\n        address to,\n        uint256 value\n    ) internal {\n        _callOptionalReturn(token, abi.encodeWithSelector(token.transfer.selector, to, value));\n    }\n\n    function safeTransferFrom(\n        IBEP20 token,\n        address from,\n        address to,\n        uint256 value\n    ) internal {\n        _callOptionalReturn(token, abi.encodeWithSelector(token.transferFrom.selector, from, to, value));\n    }\n\n    /**\n     * @dev Deprecated. This function has issues similar to the ones found in\n     * {IBEP20-approve}, and its usage is discouraged.\n     *\n     * Whenever possible, use {safeIncreaseAllowance} and\n     * {safeDecreaseAllowance} instead.\n     */\n    function safeApprove(\n        IBEP20 token,\n        address spender,\n        uint256 value\n    ) internal {\n        // safeApprove should only be called when setting an initial allowance,\n        // or when resetting it to zero. To increase and decrease it, use\n        // 'safeIncreaseAllowance' and 'safeDecreaseAllowance'\n        // solhint-disable-next-line max-line-length\n        require(\n            (value == 0) || (token.allowance(address(this), spender) == 0),\n            \"SafeBEP20: approve from non-zero to non-zero allowance\"\n        );\n        _callOptionalReturn(token, abi.encodeWithSelector(token.approve.selector, spender, value));\n    }\n\n    function safeIncreaseAllowance(\n        IBEP20 token,\n        address spender,\n        uint256 value\n    ) internal {\n        uint256 newAllowance = token.allowance(address(this), spender).add(value);\n        _callOptionalReturn(token, abi.encodeWithSelector(token.approve.selector, spender, newAllowance));\n    }\n\n    function safeDecreaseAllowance(\n        IBEP20 token,\n        address spender,\n        uint256 value\n    ) internal {\n        uint256 newAllowance =\n            token.allowance(address(this), spender).sub(value, \"SafeBEP20: decreased allowance below zero\");\n        _callOptionalReturn(token, abi.encodeWithSelector(token.approve.selector, spender, newAllowance));\n    }\n\n    /**\n     * @dev Imitates a Solidity high-level call (i.e. a regular function call to a contract), relaxing the requirement\n     * on the return value: the return value is optional (but if data is returned, it must not be false).\n     * @param token The token targeted by the call.\n     * @param data The call data (encoded using abi.encode or one of its variants).\n     */\n    function _callOptionalReturn(IBEP20 token, bytes memory data) private {\n        // We need to perform a low level call here, to bypass Solidity's return data size checking mechanism, since\n        // we're implementing it ourselves. We use {Address.functionCall} to perform this call, which verifies that\n        // the target address contains contract code and also asserts for success in the low-level call.\n\n        bytes memory returndata = address(token).functionCall(data, \"SafeBEP20: low-level call failed\");\n        if (returndata.length > 0) {\n            // Return data is optional\n            // solhint-disable-next-line max-line-length\n            require(abi.decode(returndata, (bool)), \"SafeBEP20: BEP20 operation did not succeed\");\n        }\n    }\n}\n\n// File: contracts/SmartChefInitializable.sol\npragma solidity 0.6.12;\n\ncontract SmartChefInitializable is Ownable, ReentrancyGuard {\n    using SafeMath for uint256;\n\n    using SafeBEP20 for IBEP20;\n    // The address of the smart chef factory\n    address public SMART_CHEF_FACTORY;\n\n    // Whether a limit is set for users\n    bool public hasUserLimit;\n\n    // Whether it is initialized\n    bool public isInitialized;\n\n    // Accrued token per share\n    uint256 public accTokenPerShare;\n\n    // The block number when CAKE mining ends.\n    uint256 public bonusEndBlock;\n\n    // The block number when CAKE mining starts.\n    uint256 public startBlock;\n\n    // The block number of the last pool update\n    uint256 public lastRewardBlock;\n\n    // The pool limit (0 if none)\n    uint256 public poolLimitPerUser;\n\n    // CAKE tokens created per block.\n    uint256 public rewardPerBlock;\n\n    // The precision factor\n    uint256 public PRECISION_FACTOR;\n\n    // The reward token\n    IBEP20 public rewardToken;\n\n    // The staked token\n    IBEP20 public stakedToken;\n\n    //total staking tokens\n    uint256 public totalStakingTokens;\n\n    //total reward tokens\n    uint256 public totalRewardTokens;\n\n    //freeze strat block\n    uint256 public freezeStartBlock;\n\n    //freeze end block;\n    uint256 public freezeEndBlock;\n\n    address[] public userList;\n\n    // Info of each user that stakes tokens (stakedToken)\n    mapping(address => UserInfo) public userInfo;\n\n    struct UserInfo {\n        address addr; //address of user\n        uint256 amount; // How many staked tokens the user has provided\n        uint256 rewardDebt; // Reward debt\n        bool registered; // it will add user in address list on first deposit\n    }\n    \n    event AdminTokenRecovery(address tokenRecovered, uint256 amount);\n    event Deposit(address indexed user, uint256 amount);\n    event EmergencyWithdraw(address indexed user, uint256 amount);\n    event NewStartAndEndBlocks(uint256 startBlock, uint256 endBlock);\n    event NewRewardPerBlock(uint256 rewardPerBlock);\n    event NewFreezeBlocks(uint256 freezeStartBlock, uint256 freezeEndBlock);\n    event NewPoolLimit(uint256 poolLimitPerUser);\n    event RewardsStop(uint256 blockNumber);\n    event Withdraw(address indexed user, uint256 amount);\n    event AddRewardTokens(address indexed user, uint256 amount);\n\n    constructor() public {\n        SMART_CHEF_FACTORY = msg.sender;\n    }\n\n    /*\n     * @notice Initialize the contract\n     * @param _stakedToken: staked token address\n     * @param _rewardToken: reward token address\n     * @param _rewardPerBlock: reward per block (in rewardToken)\n     * @param _startBlock: start block\n     * @param _bonusEndBlock: end block\n     * @param _poolLimitPerUser: pool limit per user in stakedToken (if any, else 0)\n     * @param _admin: admin address with ownership\n     */\n    function initialize(\n        IBEP20 _stakedToken,\n        IBEP20 _rewardToken,\n        uint256 _rewardPerBlock,\n        uint256 _startBlock,\n        uint256 _bonusEndBlock,\n        uint256 _poolLimitPerUser,\n        address _admin\n    ) external {\n        require(!isInitialized, \"Already initialized\");\n        require(msg.sender == SMART_CHEF_FACTORY, \"Not factory\");\n\n        // Make this contract initialized\n        isInitialized = true;\n\n        stakedToken = _stakedToken;\n        rewardToken = _rewardToken;\n        rewardPerBlock = _rewardPerBlock;\n        startBlock = _startBlock;\n        bonusEndBlock = _bonusEndBlock;\n\n        if (_poolLimitPerUser > 0) {\n            hasUserLimit = true;\n            poolLimitPerUser = _poolLimitPerUser;\n        }\n\n        uint256 decimalsRewardToken = uint256(rewardToken.decimals());\n        require(decimalsRewardToken < 30, \"Must be inferior to 30\");\n\n        PRECISION_FACTOR = uint256(10**(uint256(30).sub(decimalsRewardToken)));\n\n        // Set the lastRewardBlock as the startBlock\n        lastRewardBlock = startBlock;\n\n        // Transfer ownership to the admin address who becomes owner of the contract\n        transferOwnership(_admin);\n    }\n\n    /*\n     * @notice Deposit staked tokens and collect reward tokens (if any)\n     * @param _amount: amount to withdraw (in rewardToken)\n     */\n    function deposit(uint256 _amount) external nonReentrant {\n        require(isFrozen() == false, \"deposit is frozen\");\n        UserInfo storage user = userInfo[msg.sender];\n        \n        if (hasUserLimit) {\n            require(_amount.add(user.amount) <= poolLimitPerUser, \"User amount above limit\");\n        }\n\n        _updatePool();\n\n        if (user.amount > 0) {\n            uint256 pending = user.amount.mul(accTokenPerShare).div(PRECISION_FACTOR).sub(user.rewardDebt);\n            if (pending > 0) {\n                _safeRewardTransfer(address(msg.sender), pending);\n            }\n        }else{\n            if(user.registered == false){\n                userList.push(msg.sender);\n                user.registered = true;\n                user.addr = address(msg.sender);\n            }\n        }\n\n        if (_amount > 0) {\n            user.amount = user.amount.add(_amount);\n            stakedToken.safeTransferFrom(address(msg.sender), address(this), _amount);\n            totalStakingTokens = totalStakingTokens.add(_amount);\n        }\n\n        user.rewardDebt = user.amount.mul(accTokenPerShare).div(PRECISION_FACTOR);\n\n        emit Deposit(msg.sender, _amount);\n    }\n\n    /*\n     * @notice Withdraw staked tokens and collect reward tokens\n     * @param _amount: amount to withdraw (in rewardToken)\n     */\n    function withdraw(uint256 _amount) external nonReentrant {\n        require(isFrozen() == false, \"withdraw is frozen\");\n\n        UserInfo storage user = userInfo[msg.sender];\n        require(user.amount >= _amount, \"Amount to withdraw too high\");\n\n        _updatePool();\n\n        uint256 pending = user.amount.mul(accTokenPerShare).div(PRECISION_FACTOR).sub(user.rewardDebt);\n\n        if (_amount > 0) {\n            user.amount = user.amount.sub(_amount);\n            stakedToken.safeTransfer(address(msg.sender), _amount);\n            totalStakingTokens = totalStakingTokens.sub(_amount);\n        }\n\n        if (pending > 0) {\n            _safeRewardTransfer(address(msg.sender), pending);\n        }\n\n        user.rewardDebt = user.amount.mul(accTokenPerShare).div(PRECISION_FACTOR);\n\n        emit Withdraw(msg.sender, _amount);\n    }\n\n    /*\n     * @notice Withdraw staked tokens without caring about rewards rewards\n     * @dev Needs to be for emergency.\n     */\n    function emergencyWithdraw() external nonReentrant {\n        require(isFrozen() == false, \"emergency withdraw is frozen\");\n\n        UserInfo storage user = userInfo[msg.sender];\n        uint256 amountToTransfer = user.amount;\n        user.amount = 0;\n        user.rewardDebt = 0;\n\n        if (amountToTransfer > 0) {\n            stakedToken.safeTransfer(address(msg.sender), amountToTransfer);\n            totalStakingTokens = totalStakingTokens.sub(amountToTransfer);\n        }\n\n        emit EmergencyWithdraw(msg.sender, user.amount);\n    }\n\n    /*\n     * @notice return length of user addresses\n     */\n    function getUserListLength() external view returns (uint){\n        return userList.length;\n    }\n    \n    /*\n     * @notice View function to get users.\n     * @param _offset: offset for paging\n     * @param _limit: limit for paging\n     * @return get users, next offset and total users\n     */\n    function getUsersPaging(uint _offset, uint _limit) public view returns (UserInfo[] memory users, uint nextOffset, uint total) {\n        uint totalUsers = userList.length;\n        if(_limit == 0) {\n            _limit = 1;\n        }\n        \n        if (_limit > totalUsers - _offset) {\n            _limit = totalUsers - _offset;\n        }\n\n        UserInfo[] memory values = new UserInfo[] (_limit);\n        for (uint i = 0; i < _limit; i++) {\n            values[i] = userInfo[userList[_offset + i]];\n        }\n\n        return (values, _offset + _limit, totalUsers);\n    }\n\n    /*\n     * @notice isFrozed returns if contract is frozen, user cannot call deposit, withdraw, emergencyWithdraw function\n     */\n    function isFrozen() public view returns (bool){\n        return block.number >= freezeStartBlock && block.number <= freezeEndBlock;\n    }\n\n    /*\n     * @notice Stop rewards\n     * @dev Only callable by owner. Needs to be for emergency.\n     */\n    function emergencyRewardWithdraw(uint256 _amount) external onlyOwner {\n        totalRewardTokens = totalRewardTokens.sub(_amount);\n        rewardToken.safeTransfer(address(msg.sender), _amount);\n    }\n\n    /**\n     * @notice It allows the admin to reward tokens\n     * @param _amount: amount of tokens\n     * @dev This function is only callable by admin.\n     */\n    function addRewardTokens(uint256 _amount) external onlyOwner {\n        totalRewardTokens = totalRewardTokens.add(_amount);\n        rewardToken.safeTransferFrom(address(msg.sender), address(this), _amount);\n        emit AddRewardTokens(msg.sender, _amount);\n    }\n    /**\n     * @notice It allows the admin to recover wrong tokens sent to the contract\n     * @param _tokenAddress: the address of the token to withdraw\n     * @param _tokenAmount: the number of tokens to withdraw\n     * @dev This function is only callable by admin.\n     */\n    function recoverWrongTokens(address _tokenAddress, uint256 _tokenAmount) external onlyOwner {\n        require(_tokenAddress != address(stakedToken), \"Cannot be staked token\");\n        require(_tokenAddress != address(rewardToken), \"Cannot be reward token\");\n\n        IBEP20(_tokenAddress).safeTransfer(address(msg.sender), _tokenAmount);\n\n        emit AdminTokenRecovery(_tokenAddress, _tokenAmount);\n    }\n\n    /*\n     * @notice Stop rewards\n     * @dev Only callable by owner\n     */\n    function stopReward() external onlyOwner {\n        bonusEndBlock = block.number;\n    }\n\n    /*\n     * @notice Stop Freeze\n     * @dev Only callable by owner\n     */\n    function stopFreeze() external onlyOwner {\n        freezeStartBlock = 0;\n        freezeEndBlock = 0;\n    }\n    \n    /*\n     * @notice Update pool limit per user\n     * @dev Only callable by owner.\n     * @param _hasUserLimit: whether the limit remains forced\n     * @param _poolLimitPerUser: new pool limit per user\n     */\n    function updatePoolLimitPerUser(bool _hasUserLimit, uint256 _poolLimitPerUser) external onlyOwner {\n        require(hasUserLimit, \"Must be set\");\n        if (_hasUserLimit) {\n            require(_poolLimitPerUser > poolLimitPerUser, \"New limit must be higher\");\n            poolLimitPerUser = _poolLimitPerUser;\n        } else {\n            hasUserLimit = _hasUserLimit;\n            poolLimitPerUser = 0;\n        }\n        emit NewPoolLimit(poolLimitPerUser);\n    }\n\n    /*\n     * @notice Update reward per block\n     * @dev Only callable by owner.\n     * @param _rewardPerBlock: the reward per block\n     */\n    function updateRewardPerBlock(uint256 _rewardPerBlock) external onlyOwner {\n        require(block.number < startBlock || block.number > bonusEndBlock, \"Pool has started\");\n        rewardPerBlock = _rewardPerBlock;\n        emit NewRewardPerBlock(_rewardPerBlock);\n    }\n\n    /**\n     * @notice It allows the admin to update start and end blocks\n     * @dev This function is only callable by owner.\n     * @param _startBlock: the new start block\n     * @param _bonusEndBlock: the new end block\n     */\n    function updateStartAndEndBlocks(uint256 _startBlock, uint256 _bonusEndBlock) external onlyOwner {\n        require(block.number < startBlock || block.number > bonusEndBlock, \"Pool has started\");\n        require(_startBlock < _bonusEndBlock, \"New startBlock must be lower than new end block\");\n        require(block.number < _startBlock, \"New startBlock must be higher than current block\");\n\n        startBlock = _startBlock;\n        bonusEndBlock = _bonusEndBlock;\n\n        // Set the lastRewardBlock as the startBlock\n        lastRewardBlock = startBlock;\n\n        emit NewStartAndEndBlocks(_startBlock, _bonusEndBlock);\n    }\n\n    /**\n     * @notice It allows the admin to update freeze start and end blocks\n     * @dev This function is only callable by owner.\n     * @param _freezeStartBlock: the new freeze start block\n     * @param _freezeEndBlock: the new freeze end block\n     */\n    function updateFreezaBlocks(uint256 _freezeStartBlock, uint256 _freezeEndBlock) external onlyOwner {\n        require(_freezeStartBlock < _freezeEndBlock, \"New freeze startBlock must be lower than new endBlock\");\n        require(block.number < _freezeStartBlock,\"freeze start block must be higher than current block\");\n\n        freezeStartBlock = _freezeStartBlock;\n        freezeEndBlock = _freezeEndBlock;\n        emit NewFreezeBlocks(freezeStartBlock, freezeEndBlock);\n    }\n\n    /*\n     * @notice View function to see pending reward on frontend.\n     * @param _user: user address\n     * @return Pending reward for a given user\n     */\n    function pendingReward(address _user) external view returns (uint256) {\n        UserInfo storage user = userInfo[_user];\n        uint256 stakedTokenSupply = totalStakingTokens; \n        if (block.number > lastRewardBlock && stakedTokenSupply != 0) {\n            uint256 multiplier = _getMultiplier(lastRewardBlock, block.number);\n            uint256 cakeReward = multiplier.mul(rewardPerBlock);\n            uint256 adjustedTokenPerShare =\n                accTokenPerShare.add(cakeReward.mul(PRECISION_FACTOR).div(stakedTokenSupply));\n            return user.amount.mul(adjustedTokenPerShare).div(PRECISION_FACTOR).sub(user.rewardDebt);\n        } else {\n            return user.amount.mul(accTokenPerShare).div(PRECISION_FACTOR).sub(user.rewardDebt);\n        }\n    }\n\n    /*\n     * @notice Update reward variables of the given pool to be up-to-date.\n     */\n    function _updatePool() internal {\n        if (block.number <= lastRewardBlock) {\n            return;\n        }\n\n        uint256 stakedTokenSupply = totalStakingTokens;\n\n        if (stakedTokenSupply == 0) {\n            lastRewardBlock = block.number;\n            return;\n        }\n\n        uint256 multiplier = _getMultiplier(lastRewardBlock, block.number);\n        uint256 cakeReward = multiplier.mul(rewardPerBlock);\n        accTokenPerShare = accTokenPerShare.add(cakeReward.mul(PRECISION_FACTOR).div(stakedTokenSupply));\n        lastRewardBlock = block.number;\n    }\n\n    /*\n     * @notice Return reward multiplier over the given _from to _to block.\n     * @param _from: block to start\n     * @param _to: block to finish\n     */\n    function _getMultiplier(uint256 _from, uint256 _to) internal view returns (uint256) {\n        if (_to <= bonusEndBlock) {\n            return _to.sub(_from);\n        } else if (_from >= bonusEndBlock) {\n            return 0;\n        } else {\n            return bonusEndBlock.sub(_from);\n        }\n    }\n\n    /*\n     * @notice transfer reward tokens.\n     * @param _to: address where tokens will transfer\n     * @param _amount: amount of tokens\n     */\n    function _safeRewardTransfer(address _to, uint256 _amount) internal {\n        uint256 rewardTokenBal = totalRewardTokens;\n        if (_amount > rewardTokenBal) {\n            totalRewardTokens = totalRewardTokens.sub(rewardTokenBal);\n            rewardToken.safeTransfer(_to, rewardTokenBal);\n        } else {\n            totalRewardTokens = totalRewardTokens.sub(_amount);\n            rewardToken.safeTransfer(_to, _amount);\n        }\n        \n    }\n\n}",
  "sourcePath": "/Users/ithihasreddy/Desktop/ledu/contracts/memePadStake.sol",
  "compiler": {
    "name": "solc",
    "version": "0.6.12+commit.27d51765.Emscripten.clang"
  },
  "schemaVersion": "3.4.0",
  "updatedAt": "2021-11-14T19:12:18.073Z",
  "devdoc": {
    "kind": "dev",
    "methods": {
      "addRewardTokens(uint256)": {
        "details": "This function is only callable by admin.",
        "params": {
          "_amount": ": amount of tokens"
        }
      },
      "owner()": {
        "details": "Returns the address of the current owner."
      },
      "recoverWrongTokens(address,uint256)": {
        "details": "This function is only callable by admin.",
        "params": {
          "_tokenAddress": ": the address of the token to withdraw",
          "_tokenAmount": ": the number of tokens to withdraw"
        }
      },
      "renounceOwnership()": {
        "details": "Leaves the contract without owner. It will not be possible to call `onlyOwner` functions anymore. Can only be called by the current owner. NOTE: Renouncing ownership will leave the contract without an owner, thereby removing any functionality that is only available to the owner."
      },
      "transferOwnership(address)": {
        "details": "Transfers ownership of the contract to a new account (`newOwner`). Can only be called by the current owner."
      },
      "updateFreezaBlocks(uint256,uint256)": {
        "details": "This function is only callable by owner.",
        "params": {
          "_freezeEndBlock": ": the new freeze end block",
          "_freezeStartBlock": ": the new freeze start block"
        }
      },
      "updateStartAndEndBlocks(uint256,uint256)": {
        "details": "This function is only callable by owner.",
        "params": {
          "_bonusEndBlock": ": the new end block",
          "_startBlock": ": the new start block"
        }
      }
    },
    "version": 1
  },
  "userdoc": {
    "kind": "user",
    "methods": {
      "addRewardTokens(uint256)": {
        "notice": "It allows the admin to reward tokens"
      },
      "recoverWrongTokens(address,uint256)": {
        "notice": "It allows the admin to recover wrong tokens sent to the contract"
      },
      "updateFreezaBlocks(uint256,uint256)": {
        "notice": "It allows the admin to update freeze start and end blocks"
      },
      "updateStartAndEndBlocks(uint256,uint256)": {
        "notice": "It allows the admin to update start and end blocks"
      }
    },
    "version": 1
  }
}